{
  "_format": "hh-sol-artifact-1",
  "contractName": "AFRCTreasury",
  "sourceName": "contracts/AFRCTreasury.sol",
  "abi": [
    {
      "inputs": [
        {
          "internalType": "address",
          "name": "_afrcToken",
          "type": "address"
        },
        {
          "internalType": "address[]",
          "name": "_signers",
          "type": "address[]"
        },
        {
          "internalType": "uint256",
          "name": "_required",
          "type": "uint256"
        }
      ],
      "stateMutability": "nonpayable",
      "type": "constructor"
    },
    {
      "inputs": [
        {
          "internalType": "address",
          "name": "owner",
          "type": "address"
        }
      ],
      "name": "OwnableInvalidOwner",
      "type": "error"
    },
    {
      "inputs": [
        {
          "internalType": "address",
          "name": "account",
          "type": "address"
        }
      ],
      "name": "OwnableUnauthorizedAccount",
      "type": "error"
    },
    {
      "inputs": [],
      "name": "ReentrancyGuardReentrantCall",
      "type": "error"
    },
    {
      "anonymous": false,
      "inputs": [
        {
          "indexed": true,
          "internalType": "address",
          "name": "previousOwner",
          "type": "address"
        },
        {
          "indexed": true,
          "internalType": "address",
          "name": "newOwner",
          "type": "address"
        }
      ],
      "name": "OwnershipTransferred",
      "type": "event"
    },
    {
      "anonymous": false,
      "inputs": [
        {
          "indexed": true,
          "internalType": "uint256",
          "name": "txId",
          "type": "uint256"
        },
        {
          "indexed": true,
          "internalType": "address",
          "name": "signer",
          "type": "address"
        }
      ],
      "name": "TransactionConfirmed",
      "type": "event"
    },
    {
      "anonymous": false,
      "inputs": [
        {
          "indexed": true,
          "internalType": "uint256",
          "name": "txId",
          "type": "uint256"
        }
      ],
      "name": "TransactionExecuted",
      "type": "event"
    },
    {
      "anonymous": false,
      "inputs": [
        {
          "indexed": true,
          "internalType": "uint256",
          "name": "txId",
          "type": "uint256"
        },
        {
          "indexed": true,
          "internalType": "address",
          "name": "destination",
          "type": "address"
        },
        {
          "indexed": false,
          "internalType": "uint256",
          "name": "amount",
          "type": "uint256"
        }
      ],
      "name": "TransactionSubmitted",
      "type": "event"
    },
    {
      "inputs": [],
      "name": "MIN_TIMELOCK",
      "outputs": [
        {
          "internalType": "uint256",
          "name": "",
          "type": "uint256"
        }
      ],
      "stateMutability": "view",
      "type": "function"
    },
    {
      "inputs": [],
      "name": "afrcToken",
      "outputs": [
        {
          "internalType": "contract IERC20",
          "name": "",
          "type": "address"
        }
      ],
      "stateMutability": "view",
      "type": "function"
    },
    {
      "inputs": [
        {
          "internalType": "uint256",
          "name": "txId",
          "type": "uint256"
        }
      ],
      "name": "confirmTransaction",
      "outputs": [],
      "stateMutability": "nonpayable",
      "type": "function"
    },
    {
      "inputs": [
        {
          "internalType": "uint256",
          "name": "",
          "type": "uint256"
        },
        {
          "internalType": "address",
          "name": "",
          "type": "address"
        }
      ],
      "name": "confirmations",
      "outputs": [
        {
          "internalType": "bool",
          "name": "",
          "type": "bool"
        }
      ],
      "stateMutability": "view",
      "type": "function"
    },
    {
      "inputs": [],
      "name": "getSignerCount",
      "outputs": [
        {
          "internalType": "uint256",
          "name": "",
          "type": "uint256"
        }
      ],
      "stateMutability": "view",
      "type": "function"
    },
    {
      "inputs": [
        {
          "internalType": "uint256",
          "name": "txId",
          "type": "uint256"
        }
      ],
      "name": "isConfirmed",
      "outputs": [
        {
          "internalType": "bool",
          "name": "",
          "type": "bool"
        }
      ],
      "stateMutability": "view",
      "type": "function"
    },
    {
      "inputs": [
        {
          "internalType": "address",
          "name": "",
          "type": "address"
        }
      ],
      "name": "isSigner",
      "outputs": [
        {
          "internalType": "bool",
          "name": "",
          "type": "bool"
        }
      ],
      "stateMutability": "view",
      "type": "function"
    },
    {
      "inputs": [],
      "name": "owner",
      "outputs": [
        {
          "internalType": "address",
          "name": "",
          "type": "address"
        }
      ],
      "stateMutability": "view",
      "type": "function"
    },
    {
      "inputs": [],
      "name": "renounceOwnership",
      "outputs": [],
      "stateMutability": "nonpayable",
      "type": "function"
    },
    {
      "inputs": [],
      "name": "required",
      "outputs": [
        {
          "internalType": "uint256",
          "name": "",
          "type": "uint256"
        }
      ],
      "stateMutability": "view",
      "type": "function"
    },
    {
      "inputs": [
        {
          "internalType": "uint256",
          "name": "",
          "type": "uint256"
        }
      ],
      "name": "signers",
      "outputs": [
        {
          "internalType": "address",
          "name": "",
          "type": "address"
        }
      ],
      "stateMutability": "view",
      "type": "function"
    },
    {
      "inputs": [
        {
          "internalType": "address",
          "name": "destination",
          "type": "address"
        },
        {
          "internalType": "uint256",
          "name": "amount",
          "type": "uint256"
        }
      ],
      "name": "submitTransaction",
      "outputs": [
        {
          "internalType": "uint256",
          "name": "txId",
          "type": "uint256"
        }
      ],
      "stateMutability": "nonpayable",
      "type": "function"
    },
    {
      "inputs": [],
      "name": "transactionCount",
      "outputs": [
        {
          "internalType": "uint256",
          "name": "",
          "type": "uint256"
        }
      ],
      "stateMutability": "view",
      "type": "function"
    },
    {
      "inputs": [
        {
          "internalType": "uint256",
          "name": "",
          "type": "uint256"
        }
      ],
      "name": "transactions",
      "outputs": [
        {
          "internalType": "address",
          "name": "destination",
          "type": "address"
        },
        {
          "internalType": "uint256",
          "name": "amount",
          "type": "uint256"
        },
        {
          "internalType": "bytes",
          "name": "data",
          "type": "bytes"
        },
        {
          "internalType": "bool",
          "name": "executed",
          "type": "bool"
        },
        {
          "internalType": "uint256",
          "name": "confirmations",
          "type": "uint256"
        },
        {
          "internalType": "uint256",
          "name": "timestamp",
          "type": "uint256"
        }
      ],
      "stateMutability": "view",
      "type": "function"
    },
    {
      "inputs": [
        {
          "internalType": "address",
          "name": "newOwner",
          "type": "address"
        }
      ],
      "name": "transferOwnership",
      "outputs": [],
      "stateMutability": "nonpayable",
      "type": "function"
    }
  ],
  "bytecode": "0x60806040523480156200001157600080fd5b5060405162001216380380620012168339810160408190526200003491620003e9565b33806200005c57604051631e4fbdf760e01b8152600060048201526024015b60405180910390fd5b620000678162000366565b50600180556001600160a01b038316620000c45760405162461bcd60e51b815260206004820152601c60248201527f54726561737572793a207a65726f20746f6b656e206164647265737300000000604482015260640162000053565b600382511015620001225760405162461bcd60e51b815260206004820152602160248201527f54726561737572793a206e656564206174206c656173742033207369676e65726044820152607360f81b606482015260840162000053565b8151811115620001755760405162461bcd60e51b815260206004820152601c60248201527f54726561737572793a207265717569726564203e207369676e65727300000000604482015260640162000053565b6002811015620001c85760405162461bcd60e51b815260206004820152601f60248201527f54726561737572793a207265717569726564206d757374206265203e3d203200604482015260640162000053565b600280546001600160a01b0319166001600160a01b03851617905560005b825181101562000359576000838281518110620002075762000207620004db565b6020026020010151905060006001600160a01b0316816001600160a01b031603620002755760405162461bcd60e51b815260206004820152601d60248201527f54726561737572793a207a65726f207369676e65722061646472657373000000604482015260640162000053565b6001600160a01b03811660009081526004602052604090205460ff1615620002e05760405162461bcd60e51b815260206004820152601a60248201527f54726561737572793a206475706c6963617465207369676e6572000000000000604482015260640162000053565b6001600160a01b03166000818152600460205260408120805460ff191660019081179091556003805491820181559091527fc2575a0e9e593c00f959f8c92f12db2869c3395a3b0502d05e2516446f71f85b0180546001600160a01b0319169091179055806200035081620004f1565b915050620001e6565b5060055550620005199050565b600080546001600160a01b038381166001600160a01b0319831681178455604051919092169283917f8be0079c531659141344cd1fd0a4f28419497f9722a3daafe3b4186f6b6457e09190a35050565b80516001600160a01b0381168114620003ce57600080fd5b919050565b634e487b7160e01b600052604160045260246000fd5b600080600060608486031215620003ff57600080fd5b6200040a84620003b6565b602085810151919450906001600160401b03808211156200042a57600080fd5b818701915087601f8301126200043f57600080fd5b815181811115620004545762000454620003d3565b8060051b604051601f19603f830116810181811085821117156200047c576200047c620003d3565b60405291825284820192508381018501918a8311156200049b57600080fd5b938501935b82851015620004c457620004b485620003b6565b84529385019392850192620004a0565b809750505050505050604084015190509250925092565b634e487b7160e01b600052603260045260246000fd5b6000600182016200051257634e487b7160e01b600052601160045260246000fd5b5060010190565b610ced80620005296000396000f3fe608060405234801561001057600080fd5b50600436106100f55760003560e01c80639ace38c211610097578063c01a8c8411610066578063c01a8c8414610239578063dc8452cd1461024c578063f2fde38b14610255578063fb0c75491461026857600080fd5b80639ace38c2146101f0578063a57b186514610215578063b715be8114610228578063b77bf6001461023057600080fd5b8063715018a6116100d3578063715018a614610189578063784547a7146101935780637df73e27146101bc5780638da5cb5b146101df57600080fd5b80631d43b653146100fa5780632079fb9a146101205780633411c81c1461014b575b600080fd5b61010d6101083660046109de565b610272565b6040519081526020015b60405180910390f35b61013361012e366004610a08565b610438565b6040516001600160a01b039091168152602001610117565b610179610159366004610a21565b600860209081526000928352604080842090915290825290205460ff1681565b6040519015158152602001610117565b610191610462565b005b6101796101a1366004610a08565b60055460009182526007602052604090912060040154101590565b6101796101ca366004610a4d565b60046020526000908152604090205460ff1681565b6000546001600160a01b0316610133565b6102036101fe366004610a08565b610476565b60405161011796959493929190610a6f565b600254610133906001600160a01b031681565b60035461010d565b61010d60065481565b610191610247366004610a08565b610543565b61010d60055481565b610191610263366004610a4d565b610755565b61010d6202a30081565b3360009081526004602052604081205460ff166102cf5760405162461bcd60e51b81526020600482015260166024820152752a3932b0b9bab93c9d103737ba10309039b4b3b732b960511b60448201526064015b60405180910390fd5b6001600160a01b0383166103255760405162461bcd60e51b815260206004820152601a60248201527f54726561737572793a207a65726f2064657374696e6174696f6e00000000000060448201526064016102c6565b506006546040805160c0810182526001600160a01b038581168252602080830186815284518083018652600080825285870191825260608601819052608086018190524260a0870152878152600790935294909120835181546001600160a01b0319169316929092178255516001820155915190919060028201906103aa9082610b8d565b50606082015160038201805460ff19169115159190911790556080820151600482015560a090910151600590910155600680549060006103e983610c63565b9190505550826001600160a01b0316817f6974e8be5912ae917b788db2884a51e71cbe0f0979af347e6a32d07d52ef82a38460405161042a91815260200190565b60405180910390a392915050565b6003818154811061044857600080fd5b6000918252602090912001546001600160a01b0316905081565b61046a610793565b61047460006107c0565b565b6007602052600090815260409020805460018201546002830180546001600160a01b039093169391926104a890610b04565b80601f01602080910402602001604051908101604052809291908181526020018280546104d490610b04565b80156105215780601f106104f657610100808354040283529160200191610521565b820191906000526020600020905b81548152906001019060200180831161050457829003601f168201915b5050505060038301546004840154600590940154929360ff9091169290915086565b3360009081526004602052604090205460ff1661059b5760405162461bcd60e51b81526020600482015260166024820152752a3932b0b9bab93c9d103737ba10309039b4b3b732b960511b60448201526064016102c6565b8060065481106105ed5760405162461bcd60e51b815260206004820152601b60248201527f54726561737572793a20747820646f6573206e6f74206578697374000000000060448201526064016102c6565b600082815260076020526040902060030154829060ff16156106515760405162461bcd60e51b815260206004820152601d60248201527f54726561737572793a20747820616c726561647920657865637574656400000060448201526064016102c6565b6000838152600860209081526040808320338452909152902054839060ff16156106bd5760405162461bcd60e51b815260206004820152601e60248201527f54726561737572793a20747820616c726561647920636f6e6669726d6564000060448201526064016102c6565b60008481526008602090815260408083203384528252808320805460ff19166001179055868352600790915281206004018054916106fa83610c63565b9091555050604051339085907f15c2f311c9e0f53b50388279894aeff029a3457884a6601e924fca879e12adcc90600090a36005546000858152600760205260409020600401541061074f5761074f84610810565b50505050565b61075d610793565b6001600160a01b03811661078757604051631e4fbdf760e01b8152600060048201526024016102c6565b610790816107c0565b50565b6000546001600160a01b031633146104745760405163118cdaa760e01b81523360048201526024016102c6565b600080546001600160a01b038381166001600160a01b0319831681178455604051919092169283917f8be0079c531659141344cd1fd0a4f28419497f9722a3daafe3b4186f6b6457e09190a35050565b610818610998565b60008181526007602052604090206005810154610839906202a30090610c7c565b4210156108885760405162461bcd60e51b815260206004820152601b60248201527f54726561737572793a2074696d656c6f636b206e6f74206f766572000000000060448201526064016102c6565b60038101805460ff1916600190811790915560025482549183015460405163a9059cbb60e01b81526001600160a01b039384166004820152602481019190915291169063a9059cbb906044016020604051808303816000875af11580156108f3573d6000803e3d6000fd5b505050506040513d601f19601f820116820180604052508101906109179190610c95565b6109635760405162461bcd60e51b815260206004820152601960248201527f54726561737572793a207472616e73666572206661696c65640000000000000060448201526064016102c6565b60405182907f15ed165a284872ea7017f03df402a0cadfbfab588320ffaf83f160c2f82781c790600090a25061079060018055565b6002600154036109bb57604051633ee5aeb560e01b815260040160405180910390fd5b6002600155565b80356001600160a01b03811681146109d957600080fd5b919050565b600080604083850312156109f157600080fd5b6109fa836109c2565b946020939093013593505050565b600060208284031215610a1a57600080fd5b5035919050565b60008060408385031215610a3457600080fd5b82359150610a44602084016109c2565b90509250929050565b600060208284031215610a5f57600080fd5b610a68826109c2565b9392505050565b60018060a01b038716815260006020878184015260c0604084015286518060c085015260005b81811015610ab15788810183015185820160e001528201610a95565b50600060e0828601015260e0601f19601f83011685010192505050610ada606083018615159052565b608082019390935260a00152949350505050565b634e487b7160e01b600052604160045260246000fd5b600181811c90821680610b1857607f821691505b602082108103610b3857634e487b7160e01b600052602260045260246000fd5b50919050565b601f821115610b8857600081815260208120601f850160051c81016020861015610b655750805b601f850160051c820191505b81811015610b8457828155600101610b71565b5050505b505050565b815167ffffffffffffffff811115610ba757610ba7610aee565b610bbb81610bb58454610b04565b84610b3e565b602080601f831160018114610bf05760008415610bd85750858301515b600019600386901b1c1916600185901b178555610b84565b600085815260208120601f198616915b82811015610c1f57888601518255948401946001909101908401610c00565b5085821015610c3d5787850151600019600388901b60f8161c191681555b5050505050600190811b01905550565b634e487b7160e01b600052601160045260246000fd5b600060018201610c7557610c75610c4d565b5060010190565b80820180821115610c8f57610c8f610c4d565b92915050565b600060208284031215610ca757600080fd5b81518015158114610a6857600080fdfea264697066735822122038748fc4fe6c98115ac8644d989f83c9bd62dc95dbad9f4bb3d5061a6eedd96164736f6c63430008140033",
  "linkReferences": {},
  "deployedLinkReferences": {}
}