{
  "_format": "hh-sol-artifact-1",
  "contractName": "AFRCToken",
  "sourceName": "contracts/AFRCToken.sol",
  "abi": [
    {
      "inputs": [],
      "stateMutability": "nonpayable",
      "type": "constructor"
    },
    {
      "inputs": [],
      "name": "ECDSAInvalidSignature",
      "type": "error"
    },
    {
      "inputs": [
        {
          "internalType": "uint256",
          "name": "length",
          "type": "uint256"
        }
      ],
      "name": "ECDSAInvalidSignatureLength",
      "type": "error"
    },
    {
      "inputs": [
        {
          "internalType": "bytes32",
          "name": "s",
          "type": "bytes32"
        }
      ],
      "name": "ECDSAInvalidSignatureS",
      "type": "error"
    },
    {
      "inputs": [
        {
          "internalType": "address",
          "name": "spender",
          "type": "address"
        },
        {
          "internalType": "uint256",
          "name": "allowance",
          "type": "uint256"
        },
        {
          "internalType": "uint256",
          "name": "needed",
          "type": "uint256"
        }
      ],
      "name": "ERC20InsufficientAllowance",
      "type": "error"
    },
    {
      "inputs": [
        {
          "internalType": "address",
          "name": "sender",
          "type": "address"
        },
        {
          "internalType": "uint256",
          "name": "balance",
          "type": "uint256"
        },
        {
          "internalType": "uint256",
          "name": "needed",
          "type": "uint256"
        }
      ],
      "name": "ERC20InsufficientBalance",
      "type": "error"
    },
    {
      "inputs": [
        {
          "internalType": "address",
          "name": "approver",
          "type": "address"
        }
      ],
      "name": "ERC20InvalidApprover",
      "type": "error"
    },
    {
      "inputs": [
        {
          "internalType": "address",
          "name": "receiver",
          "type": "address"
        }
      ],
      "name": "ERC20InvalidReceiver",
      "type": "error"
    },
    {
      "inputs": [
        {
          "internalType": "address",
          "name": "sender",
          "type": "address"
        }
      ],
      "name": "ERC20InvalidSender",
      "type": "error"
    },
    {
      "inputs": [
        {
          "internalType": "address",
          "name": "spender",
          "type": "address"
        }
      ],
      "name": "ERC20InvalidSpender",
      "type": "error"
    },
    {
      "inputs": [
        {
          "internalType": "uint256",
          "name": "deadline",
          "type": "uint256"
        }
      ],
      "name": "ERC2612ExpiredSignature",
      "type": "error"
    },
    {
      "inputs": [
        {
          "internalType": "address",
          "name": "signer",
          "type": "address"
        },
        {
          "internalType": "address",
          "name": "owner",
          "type": "address"
        }
      ],
      "name": "ERC2612InvalidSigner",
      "type": "error"
    },
    {
      "inputs": [],
      "name": "EnforcedPause",
      "type": "error"
    },
    {
      "inputs": [],
      "name": "ExpectedPause",
      "type": "error"
    },
    {
      "inputs": [
        {
          "internalType": "address",
          "name": "account",
          "type": "address"
        },
        {
          "internalType": "uint256",
          "name": "currentNonce",
          "type": "uint256"
        }
      ],
      "name": "InvalidAccountNonce",
      "type": "error"
    },
    {
      "inputs": [],
      "name": "InvalidShortString",
      "type": "error"
    },
    {
      "inputs": [
        {
          "internalType": "address",
          "name": "owner",
          "type": "address"
        }
      ],
      "name": "OwnableInvalidOwner",
      "type": "error"
    },
    {
      "inputs": [
        {
          "internalType": "address",
          "name": "account",
          "type": "address"
        }
      ],
      "name": "OwnableUnauthorizedAccount",
      "type": "error"
    },
    {
      "inputs": [
        {
          "internalType": "string",
          "name": "str",
          "type": "string"
        }
      ],
      "name": "StringTooLong",
      "type": "error"
    },
    {
      "anonymous": false,
      "inputs": [
        {
          "indexed": true,
          "internalType": "address",
          "name": "owner",
          "type": "address"
        },
        {
          "indexed": true,
          "internalType": "address",
          "name": "spender",
          "type": "address"
        },
        {
          "indexed": false,
          "internalType": "uint256",
          "name": "value",
          "type": "uint256"
        }
      ],
      "name": "Approval",
      "type": "event"
    },
    {
      "anonymous": false,
      "inputs": [
        {
          "indexed": true,
          "internalType": "address",
          "name": "account",
          "type": "address"
        },
        {
          "indexed": false,
          "internalType": "bool",
          "name": "status",
          "type": "bool"
        }
      ],
      "name": "BlacklistUpdated",
      "type": "event"
    },
    {
      "anonymous": false,
      "inputs": [],
      "name": "EIP712DomainChanged",
      "type": "event"
    },
    {
      "anonymous": false,
      "inputs": [
        {
          "indexed": false,
          "internalType": "uint256",
          "name": "timestamp",
          "type": "uint256"
        },
        {
          "indexed": false,
          "internalType": "string",
          "name": "reason",
          "type": "string"
        }
      ],
      "name": "EmergencyPauseActivated",
      "type": "event"
    },
    {
      "anonymous": false,
      "inputs": [
        {
          "indexed": true,
          "internalType": "address",
          "name": "from",
          "type": "address"
        },
        {
          "indexed": false,
          "internalType": "uint256",
          "name": "amount",
          "type": "uint256"
        },
        {
          "indexed": false,
          "internalType": "string",
          "name": "feeType",
          "type": "string"
        }
      ],
      "name": "FeeBurned",
      "type": "event"
    },
    {
      "anonymous": false,
      "inputs": [
        {
          "indexed": true,
          "internalType": "address",
          "name": "previousOwner",
          "type": "address"
        },
        {
          "indexed": true,
          "internalType": "address",
          "name": "newOwner",
          "type": "address"
        }
      ],
      "name": "OwnershipTransferred",
      "type": "event"
    },
    {
      "anonymous": false,
      "inputs": [
        {
          "indexed": false,
          "internalType": "address",
          "name": "account",
          "type": "address"
        }
      ],
      "name": "Paused",
      "type": "event"
    },
    {
      "anonymous": false,
      "inputs": [
        {
          "indexed": true,
          "internalType": "address",
          "name": "from",
          "type": "address"
        },
        {
          "indexed": true,
          "internalType": "address",
          "name": "to",
          "type": "address"
        },
        {
          "indexed": false,
          "internalType": "uint256",
          "name": "value",
          "type": "uint256"
        }
      ],
      "name": "Transfer",
      "type": "event"
    },
    {
      "anonymous": false,
      "inputs": [
        {
          "indexed": false,
          "internalType": "address",
          "name": "account",
          "type": "address"
        }
      ],
      "name": "Unpaused",
      "type": "event"
    },
    {
      "inputs": [],
      "name": "BURN_ADDRESS",
      "outputs": [
        {
          "internalType": "address",
          "name": "",
          "type": "address"
        }
      ],
      "stateMutability": "view",
      "type": "function"
    },
    {
      "inputs": [],
      "name": "DOMAIN_SEPARATOR",
      "outputs": [
        {
          "internalType": "bytes32",
          "name": "",
          "type": "bytes32"
        }
      ],
      "stateMutability": "view",
      "type": "function"
    },
    {
      "inputs": [],
      "name": "MAX_PAUSE_DURATION",
      "outputs": [
        {
          "internalType": "uint256",
          "name": "",
          "type": "uint256"
        }
      ],
      "stateMutability": "view",
      "type": "function"
    },
    {
      "inputs": [],
      "name": "MAX_SUPPLY",
      "outputs": [
        {
          "internalType": "uint256",
          "name": "",
          "type": "uint256"
        }
      ],
      "stateMutability": "view",
      "type": "function"
    },
    {
      "inputs": [
        {
          "internalType": "string",
          "name": "reason",
          "type": "string"
        }
      ],
      "name": "activateEmergencyPause",
      "outputs": [],
      "stateMutability": "nonpayable",
      "type": "function"
    },
    {
      "inputs": [
        {
          "internalType": "address",
          "name": "owner",
          "type": "address"
        },
        {
          "internalType": "address",
          "name": "spender",
          "type": "address"
        }
      ],
      "name": "allowance",
      "outputs": [
        {
          "internalType": "uint256",
          "name": "",
          "type": "uint256"
        }
      ],
      "stateMutability": "view",
      "type": "function"
    },
    {
      "inputs": [
        {
          "internalType": "address",
          "name": "spender",
          "type": "address"
        },
        {
          "internalType": "uint256",
          "name": "value",
          "type": "uint256"
        }
      ],
      "name": "approve",
      "outputs": [
        {
          "internalType": "bool",
          "name": "",
          "type": "bool"
        }
      ],
      "stateMutability": "nonpayable",
      "type": "function"
    },
    {
      "inputs": [
        {
          "internalType": "address",
          "name": "account",
          "type": "address"
        }
      ],
      "name": "balanceOf",
      "outputs": [
        {
          "internalType": "uint256",
          "name": "",
          "type": "uint256"
        }
      ],
      "stateMutability": "view",
      "type": "function"
    },
    {
      "inputs": [
        {
          "internalType": "uint256",
          "name": "value",
          "type": "uint256"
        }
      ],
      "name": "burn",
      "outputs": [],
      "stateMutability": "nonpayable",
      "type": "function"
    },
    {
      "inputs": [
        {
          "internalType": "address",
          "name": "from",
          "type": "address"
        },
        {
          "internalType": "uint256",
          "name": "amount",
          "type": "uint256"
        }
      ],
      "name": "burnFrom",
      "outputs": [],
      "stateMutability": "nonpayable",
      "type": "function"
    },
    {
      "inputs": [
        {
          "internalType": "uint256",
          "name": "amount",
          "type": "uint256"
        }
      ],
      "name": "burnTokens",
      "outputs": [],
      "stateMutability": "nonpayable",
      "type": "function"
    },
    {
      "inputs": [],
      "name": "circulatingSupply",
      "outputs": [
        {
          "internalType": "uint256",
          "name": "",
          "type": "uint256"
        }
      ],
      "stateMutability": "view",
      "type": "function"
    },
    {
      "inputs": [],
      "name": "deactivateEmergencyPause",
      "outputs": [],
      "stateMutability": "nonpayable",
      "type": "function"
    },
    {
      "inputs": [],
      "name": "decimals",
      "outputs": [
        {
          "internalType": "uint8",
          "name": "",
          "type": "uint8"
        }
      ],
      "stateMutability": "view",
      "type": "function"
    },
    {
      "inputs": [],
      "name": "eip712Domain",
      "outputs": [
        {
          "internalType": "bytes1",
          "name": "fields",
          "type": "bytes1"
        },
        {
          "internalType": "string",
          "name": "name",
          "type": "string"
        },
        {
          "internalType": "string",
          "name": "version",
          "type": "string"
        },
        {
          "internalType": "uint256",
          "name": "chainId",
          "type": "uint256"
        },
        {
          "internalType": "address",
          "name": "verifyingContract",
          "type": "address"
        },
        {
          "internalType": "bytes32",
          "name": "salt",
          "type": "bytes32"
        },
        {
          "internalType": "uint256[]",
          "name": "extensions",
          "type": "uint256[]"
        }
      ],
      "stateMutability": "view",
      "type": "function"
    },
    {
      "inputs": [],
      "name": "governanceExtendPause",
      "outputs": [],
      "stateMutability": "nonpayable",
      "type": "function"
    },
    {
      "inputs": [
        {
          "internalType": "address",
          "name": "",
          "type": "address"
        }
      ],
      "name": "isBlacklisted",
      "outputs": [
        {
          "internalType": "bool",
          "name": "",
          "type": "bool"
        }
      ],
      "stateMutability": "view",
      "type": "function"
    },
    {
      "inputs": [],
      "name": "name",
      "outputs": [
        {
          "internalType": "string",
          "name": "",
          "type": "string"
        }
      ],
      "stateMutability": "view",
      "type": "function"
    },
    {
      "inputs": [
        {
          "internalType": "address",
          "name": "owner",
          "type": "address"
        }
      ],
      "name": "nonces",
      "outputs": [
        {
          "internalType": "uint256",
          "name": "",
          "type": "uint256"
        }
      ],
      "stateMutability": "view",
      "type": "function"
    },
    {
      "inputs": [],
      "name": "owner",
      "outputs": [
        {
          "internalType": "address",
          "name": "",
          "type": "address"
        }
      ],
      "stateMutability": "view",
      "type": "function"
    },
    {
      "inputs": [],
      "name": "pauseActivatedAt",
      "outputs": [
        {
          "internalType": "uint256",
          "name": "",
          "type": "uint256"
        }
      ],
      "stateMutability": "view",
      "type": "function"
    },
    {
      "inputs": [],
      "name": "pauseTimeRemaining",
      "outputs": [
        {
          "internalType": "uint256",
          "name": "",
          "type": "uint256"
        }
      ],
      "stateMutability": "view",
      "type": "function"
    },
    {
      "inputs": [],
      "name": "paused",
      "outputs": [
        {
          "internalType": "bool",
          "name": "",
          "type": "bool"
        }
      ],
      "stateMutability": "view",
      "type": "function"
    },
    {
      "inputs": [
        {
          "internalType": "address",
          "name": "owner",
          "type": "address"
        },
        {
          "internalType": "address",
          "name": "spender",
          "type": "address"
        },
        {
          "internalType": "uint256",
          "name": "value",
          "type": "uint256"
        },
        {
          "internalType": "uint256",
          "name": "deadline",
          "type": "uint256"
        },
        {
          "internalType": "uint8",
          "name": "v",
          "type": "uint8"
        },
        {
          "internalType": "bytes32",
          "name": "r",
          "type": "bytes32"
        },
        {
          "internalType": "bytes32",
          "name": "s",
          "type": "bytes32"
        }
      ],
      "name": "permit",
      "outputs": [],
      "stateMutability": "nonpayable",
      "type": "function"
    },
    {
      "inputs": [],
      "name": "renounceOwnership",
      "outputs": [],
      "stateMutability": "nonpayable",
      "type": "function"
    },
    {
      "inputs": [
        {
          "internalType": "address",
          "name": "account",
          "type": "address"
        },
        {
          "internalType": "bool",
          "name": "status",
          "type": "bool"
        }
      ],
      "name": "setBlacklist",
      "outputs": [],
      "stateMutability": "nonpayable",
      "type": "function"
    },
    {
      "inputs": [],
      "name": "symbol",
      "outputs": [
        {
          "internalType": "string",
          "name": "",
          "type": "string"
        }
      ],
      "stateMutability": "view",
      "type": "function"
    },
    {
      "inputs": [],
      "name": "totalSupply",
      "outputs": [
        {
          "internalType": "uint256",
          "name": "",
          "type": "uint256"
        }
      ],
      "stateMutability": "view",
      "type": "function"
    },
    {
      "inputs": [
        {
          "internalType": "address",
          "name": "to",
          "type": "address"
        },
        {
          "internalType": "uint256",
          "name": "value",
          "type": "uint256"
        }
      ],
      "name": "transfer",
      "outputs": [
        {
          "internalType": "bool",
          "name": "",
          "type": "bool"
        }
      ],
      "stateMutability": "nonpayable",
      "type": "function"
    },
    {
      "inputs": [
        {
          "internalType": "address",
          "name": "from",
          "type": "address"
        },
        {
          "internalType": "address",
          "name": "to",
          "type": "address"
        },
        {
          "internalType": "uint256",
          "name": "value",
          "type": "uint256"
        }
      ],
      "name": "transferFrom",
      "outputs": [
        {
          "internalType": "bool",
          "name": "",
          "type": "bool"
        }
      ],
      "stateMutability": "nonpayable",
      "type": "function"
    },
    {
      "inputs": [
        {
          "internalType": "address",
          "name": "newOwner",
          "type": "address"
        }
      ],
      "name": "transferOwnership",
      "outputs": [],
      "stateMutability": "nonpayable",
      "type": "function"
    }
  ],
  "bytecode": "0x6101606040523480156200001257600080fd5b50336040518060400160405280600881526020016720a32910a1a7a4a760c11b81525080604051806040016040528060018152602001603160f81b8152506040518060400160405280600881526020016720a32910a1a7a4a760c11b815250604051806040016040528060048152602001634146524360e01b81525081600390816200009f9190620005fd565b506004620000ae8282620005fd565b50620000c091508390506005620001cf565b61012052620000d1816006620001cf565b61014052815160208084019190912060e052815190820120610100524660a0526200015f60e05161010051604080517f8b73c3c69bb8fe3d512ecc4cf759cc79239f7b179b0ffacaa9a75d522b39400f60208201529081019290925260608201524660808201523060a082015260009060c00160405160208183030381529060405280519060200120905090565b60805250503060c052506001600160a01b0381166200019957604051631e4fbdf760e01b8152600060048201526024015b60405180910390fd5b620001a48162000208565b506008805460ff60a01b19169055620001c9336af8277896582678ac0000006200025a565b62000760565b6000602083511015620001ef57620001e78362000298565b905062000202565b81620001fc8482620005fd565b5060ff90505b92915050565b600880546001600160a01b038381166001600160a01b0319831681179093556040519116919082907f8be0079c531659141344cd1fd0a4f28419497f9722a3daafe3b4186f6b6457e090600090a35050565b6001600160a01b038216620002865760405163ec442f0560e01b81526000600482015260240162000190565b6200029460008383620002db565b5050565b600080829050601f81511115620002c6578260405163305a27a960e01b8152600401620001909190620006c9565b8051620002d38262000719565b179392505050565b620002ef600854600160a01b900460ff1690565b156200033e5760405162461bcd60e51b815260206004820152601660248201527f414652433a207472616e73666572732070617573656400000000000000000000604482015260640162000190565b6001600160a01b03831660009081526009602052604090205460ff1615620003a95760405162461bcd60e51b815260206004820152601860248201527f414652433a2073656e64657220626c61636b6c69737465640000000000000000604482015260640162000190565b6001600160a01b03821660009081526009602052604090205460ff1615620004145760405162461bcd60e51b815260206004820152601b60248201527f414652433a20726563697069656e7420626c61636b6c69737465640000000000604482015260640162000190565b6200042183838362000426565b505050565b6001600160a01b038316620004555780600260008282546200044991906200073e565b90915550620004c99050565b6001600160a01b03831660009081526020819052604090205481811015620004aa5760405163391434e360e21b81526001600160a01b0385166004820152602481018290526044810183905260640162000190565b6001600160a01b03841660009081526020819052604090209082900390555b6001600160a01b038216620004e75760028054829003905562000506565b6001600160a01b03821660009081526020819052604090208054820190555b816001600160a01b0316836001600160a01b03167fddf252ad1be2c89b69c2b068fc378daa952ba7f163c4a11628f55a4df523b3ef836040516200054c91815260200190565b60405180910390a3505050565b634e487b7160e01b600052604160045260246000fd5b600181811c908216806200058457607f821691505b602082108103620005a557634e487b7160e01b600052602260045260246000fd5b50919050565b601f8211156200042157600081815260208120601f850160051c81016020861015620005d45750805b601f850160051c820191505b81811015620005f557828155600101620005e0565b505050505050565b81516001600160401b0381111562000619576200061962000559565b62000631816200062a84546200056f565b84620005ab565b602080601f831160018114620006695760008415620006505750858301515b600019600386901b1c1916600185901b178555620005f5565b600085815260208120601f198616915b828110156200069a5788860151825594840194600190910190840162000679565b5085821015620006b95787850151600019600388901b60f8161c191681555b5050505050600190811b01905550565b600060208083528351808285015260005b81811015620006f857858101830151858201604001528201620006da565b506000604082860101526040601f19601f8301168501019250505092915050565b80516020808301519190811015620005a55760001960209190910360031b1b16919050565b808201808211156200020257634e487b7160e01b600052601160045260246000fd5b60805160a05160c05160e051610100516101205161014051611b21620007bb600039600061108a0152600061105d01526000610f7901526000610f5101526000610eac01526000610ed601526000610f000152611b216000f3fe608060405234801561001057600080fd5b50600436106101e55760003560e01c80636d361bcb1161010f5780639358928b116100a2578063dd62ed3e11610071578063dd62ed3e146103d5578063f2fde38b146103e8578063fccc2813146103fb578063fe575a871461040357600080fd5b80639358928b1461039f57806395d89b41146103a7578063a9059cbb146103af578063d505accf146103c257600080fd5b80637ecebe00116100de5780637ecebe001461034457806384b0196e146103575780638a809f60146103725780638da5cb5b1461037a57600080fd5b80636d361bcb146102f857806370a0823114610300578063715018a61461032957806379cc67901461033157600080fd5b80632799657d116101875780633644e515116101565780633644e515146102b857806342966c68146102c05780635c975abb146102d35780636d1b229d146102e557600080fd5b80632799657d1461027a578063313ce5671461028457806332cb6b0c1461029357806334d76be8146102a557600080fd5b80630b8b5208116101c35780630b8b520814610235578063153b0d1e1461024c57806318160ddd1461025f57806323b872dd1461026757600080fd5b806305ce4576146101ea57806306fdde03146101f4578063095ea7b314610212575b600080fd5b6101f2610426565b005b6101fc610489565b604051610209919061176f565b60405180910390f35b6102256102203660046117a5565b61051b565b6040519015158152602001610209565b61023e600a5481565b604051908152602001610209565b6101f261025a3660046117cf565b610535565b60025461023e565b61022561027536600461180b565b610653565b61023e6203f48081565b60405160128152602001610209565b61023e6af8277896582678ac00000081565b6101f26102b3366004611847565b610677565b61023e61071c565b6101f26102ce3660046118b9565b61072b565b600854600160a01b900460ff16610225565b6101f26102f33660046118b9565b610738565b61023e61085a565b61023e61030e3660046118d2565b6001600160a01b031660009081526020819052604090205490565b6101f26108ab565b6101f261033f3660046117a5565b6108bd565b61023e6103523660046118d2565b610a4f565b61035f610a6d565b60405161020997969594939291906118ed565b6101f2610ab3565b6008546001600160a01b03165b6040516001600160a01b039091168152602001610209565b61023e610b0d565b6101fc610b46565b6102256103bd3660046117a5565b610b55565b6101f26103d0366004611983565b610b63565b61023e6103e33660046119f6565b610c9d565b6101f26103f63660046118d2565b610cc8565b610387600081565b6102256104113660046118d2565b60096020526000908152604090205460ff1681565b61042e610d03565b600854600160a01b900460ff1661047f5760405162461bcd60e51b815260206004820152601060248201526f10519490ce881b9bdd081c185d5cd95960821b60448201526064015b60405180910390fd5b610487610d30565b565b60606003805461049890611a29565b80601f01602080910402602001604051908101604052809291908181526020018280546104c490611a29565b80156105115780601f106104e657610100808354040283529160200191610511565b820191906000526020600020905b8154815290600101906020018083116104f457829003601f168201915b5050505050905090565b600033610529818585610d85565b60019150505b92915050565b61053d610d03565b6001600160a01b0382166105885760405162461bcd60e51b8152602060048201526012602482015271414652433a207a65726f206164647265737360701b6044820152606401610476565b6008546001600160a01b03166001600160a01b0316826001600160a01b0316036105f45760405162461bcd60e51b815260206004820152601c60248201527f414652433a2063616e6e6f7420626c61636b6c697374206f776e6572000000006044820152606401610476565b6001600160a01b038216600081815260096020908152604091829020805460ff191685151590811790915591519182527f6a12b3df6cba4203bd7fd06b816789f87de8c594299aed5717ae070fac781bac910160405180910390a25050565b600033610661858285610d97565b61066c858585610dfd565b506001949350505050565b61067f610d03565b600854600160a01b900460ff16156106d05760405162461bcd60e51b815260206004820152601460248201527310519490ce88185b1c9958591e481c185d5cd95960621b6044820152606401610476565b6106d8610e5c565b42600a8190556040517ff460ae79cdd97407b64c7f00c9fcfcba2cbf54c006c15bdab383ab3bdcdeef05916107109185908590611a63565b60405180910390a15050565b6000610726610e9f565b905090565b6107353382610fca565b50565b610740610d03565b6000811161078b5760405162461bcd60e51b81526020600482015260186024820152770414652433a20616d6f756e74206d757374206265203e20360441b6044820152606401610476565b336000908152602081905260409020548111156107ea5760405162461bcd60e51b815260206004820152601a60248201527f414652433a20696e73756666696369656e742062616c616e63650000000000006044820152606401610476565b6107f43382610fca565b336001600160a01b03167fbf455fc9d2ffcb9982adc7202cc67588a95fed31879ae9d043a93059eefd3dc88260405161084f918152604060208201819052600890820152671c1c9bdd1bd8dbdb60c21b606082015260800190565b60405180910390a250565b600854600090600160a01b900460ff166108745750600090565b6000600a54426108849190611aaf565b90506203f480811061089857600091505090565b6108a5816203f480611aaf565b91505090565b6108b3610d03565b6104876000611004565b6108c5610d03565b6001600160a01b03821660009081526009602052604090205460ff161561092e5760405162461bcd60e51b815260206004820152601960248201527f414652433a206163636f756e7420626c61636b6c6973746564000000000000006044820152606401610476565b600081116109795760405162461bcd60e51b81526020600482015260186024820152770414652433a20616d6f756e74206d757374206265203e20360441b6044820152606401610476565b60006109858333610c9d565b9050818110156109d75760405162461bcd60e51b815260206004820152601c60248201527f414652433a20696e73756666696369656e7420616c6c6f77616e6365000000006044820152606401610476565b6109e2833384610d97565b6109ec8383610fca565b826001600160a01b03167fbf455fc9d2ffcb9982adc7202cc67588a95fed31879ae9d043a93059eefd3dc883604051610a42918152604060208201819052600390820152620504e560ec1b606082015260800190565b60405180910390a2505050565b6001600160a01b03811660009081526007602052604081205461052f565b600060608060008060006060610a81611056565b610a89611083565b60408051600080825260208201909252600f60f81b9b939a50919850469750309650945092509050565b610abb610d03565b600854600160a01b900460ff16610b075760405162461bcd60e51b815260206004820152601060248201526f10519490ce881b9bdd081c185d5cd95960821b6044820152606401610476565b42600a55565b600080805260208190527fad3228b676f7d3cd4284a5443f17f1962b36e491b30a40b2405849e597ba5fb5546002546107269190611aaf565b60606004805461049890611a29565b600033610529818585610dfd565b83421115610b875760405163313c898160e11b815260048101859052602401610476565b60007f6e71edae12b1b97f4d1f60370fef10105fa2faae0126114a169c64845d6126c9888888610bd48c6001600160a01b0316600090815260076020526040902080546001810190915590565b6040805160208101969096526001600160a01b0394851690860152929091166060840152608083015260a082015260c0810186905260e0016040516020818303038152906040528051906020012090506000610c2f826110b0565b90506000610c3f828787876110dd565b9050896001600160a01b0316816001600160a01b031614610c86576040516325c0072360e11b81526001600160a01b0380831660048301528b166024820152604401610476565b610c918a8a8a610d85565b50505050505050505050565b6001600160a01b03918216600090815260016020908152604080832093909416825291909152205490565b610cd0610d03565b6001600160a01b038116610cfa57604051631e4fbdf760e01b815260006004820152602401610476565b61073581611004565b6008546001600160a01b031633146104875760405163118cdaa760e01b8152336004820152602401610476565b610d3861110b565b6008805460ff60a01b191690557f5db9ee0a495bf2e6ff9c91a7834c1ba4fdd244a5e8aa4e537bd38aeae4b073aa335b6040516001600160a01b03909116815260200160405180910390a1565b610d928383836001611135565b505050565b6000610da38484610c9d565b90506000198114610df75781811015610de857604051637dc7a0d960e11b81526001600160a01b03841660048201526024810182905260448101839052606401610476565b610df784848484036000611135565b50505050565b6001600160a01b038316610e2757604051634b637e8f60e11b815260006004820152602401610476565b6001600160a01b038216610e515760405163ec442f0560e01b815260006004820152602401610476565b610d9283838361120a565b610e6461133a565b6008805460ff60a01b1916600160a01b1790557f62e78cea01bee320cd4e420270b5ea74000d11b0c9f74754ebdbfc544b05a258610d683390565b6000306001600160a01b037f000000000000000000000000000000000000000000000000000000000000000016148015610ef857507f000000000000000000000000000000000000000000000000000000000000000046145b15610f2257507f000000000000000000000000000000000000000000000000000000000000000090565b610726604080517f8b73c3c69bb8fe3d512ecc4cf759cc79239f7b179b0ffacaa9a75d522b39400f60208201527f0000000000000000000000000000000000000000000000000000000000000000918101919091527f000000000000000000000000000000000000000000000000000000000000000060608201524660808201523060a082015260009060c00160405160208183030381529060405280519060200120905090565b6001600160a01b038216610ff457604051634b637e8f60e11b815260006004820152602401610476565b6110008260008361120a565b5050565b600880546001600160a01b038381166001600160a01b0319831681179093556040519116919082907f8be0079c531659141344cd1fd0a4f28419497f9722a3daafe3b4186f6b6457e090600090a35050565b60606107267f00000000000000000000000000000000000000000000000000000000000000006005611365565b60606107267f00000000000000000000000000000000000000000000000000000000000000006006611365565b600061052f6110bd610e9f565b8360405161190160f01b8152600281019290925260228201526042902090565b6000806000806110ef88888888611410565b9250925092506110ff82826114df565b50909695505050505050565b600854600160a01b900460ff1661048757604051638dfc202b60e01b815260040160405180910390fd5b6001600160a01b03841661115f5760405163e602df0560e01b815260006004820152602401610476565b6001600160a01b03831661118957604051634a1406b160e11b815260006004820152602401610476565b6001600160a01b0380851660009081526001602090815260408083209387168352929052208290558015610df757826001600160a01b0316846001600160a01b03167f8c5be1e5ebec7d5bd14f71427d1e84f3dd0314c0f7b2291e5b200ac8c7c3b925846040516111fc91815260200190565b60405180910390a350505050565b600854600160a01b900460ff161561125d5760405162461bcd60e51b815260206004820152601660248201527510519490ce881d1c985b9cd9995c9cc81c185d5cd95960521b6044820152606401610476565b6001600160a01b03831660009081526009602052604090205460ff16156112c65760405162461bcd60e51b815260206004820152601860248201527f414652433a2073656e64657220626c61636b6c697374656400000000000000006044820152606401610476565b6001600160a01b03821660009081526009602052604090205460ff161561132f5760405162461bcd60e51b815260206004820152601b60248201527f414652433a20726563697069656e7420626c61636b6c697374656400000000006044820152606401610476565b610d92838383611598565b600854600160a01b900460ff16156104875760405163d93c066560e01b815260040160405180910390fd5b606060ff831461137f57611378836116c2565b905061052f565b81805461138b90611a29565b80601f01602080910402602001604051908101604052809291908181526020018280546113b790611a29565b80156114045780601f106113d957610100808354040283529160200191611404565b820191906000526020600020905b8154815290600101906020018083116113e757829003601f168201915b5050505050905061052f565b600080807f7fffffffffffffffffffffffffffffff5d576e7357a4501ddfe92f46681b20a084111561144b57506000915060039050826114d5565b604080516000808252602082018084528a905260ff891692820192909252606081018790526080810186905260019060a0016020604051602081039080840390855afa15801561149f573d6000803e3d6000fd5b5050604051601f1901519150506001600160a01b0381166114cb575060009250600191508290506114d5565b9250600091508190505b9450945094915050565b60008260038111156114f3576114f3611ac2565b036114fc575050565b600182600381111561151057611510611ac2565b0361152e5760405163f645eedf60e01b815260040160405180910390fd5b600282600381111561154257611542611ac2565b036115635760405163fce698f760e01b815260048101829052602401610476565b600382600381111561157757611577611ac2565b03611000576040516335e2f38360e21b815260048101829052602401610476565b6001600160a01b0383166115c35780600260008282546115b89190611ad8565b909155506116359050565b6001600160a01b038316600090815260208190526040902054818110156116165760405163391434e360e21b81526001600160a01b03851660048201526024810182905260448101839052606401610476565b6001600160a01b03841660009081526020819052604090209082900390555b6001600160a01b03821661165157600280548290039055611670565b6001600160a01b03821660009081526020819052604090208054820190555b816001600160a01b0316836001600160a01b03167fddf252ad1be2c89b69c2b068fc378daa952ba7f163c4a11628f55a4df523b3ef836040516116b591815260200190565b60405180910390a3505050565b606060006116cf83611701565b604080516020808252818301909252919250600091906020820181803683375050509182525060208101929092525090565b600060ff8216601f81111561052f57604051632cd44ac360e21b815260040160405180910390fd5b6000815180845260005b8181101561174f57602081850181015186830182015201611733565b506000602082860101526020601f19601f83011685010191505092915050565b6020815260006117826020830184611729565b9392505050565b80356001600160a01b03811681146117a057600080fd5b919050565b600080604083850312156117b857600080fd5b6117c183611789565b946020939093013593505050565b600080604083850312156117e257600080fd5b6117eb83611789565b91506020830135801515811461180057600080fd5b809150509250929050565b60008060006060848603121561182057600080fd5b61182984611789565b925061183760208501611789565b9150604084013590509250925092565b6000806020838503121561185a57600080fd5b823567ffffffffffffffff8082111561187257600080fd5b818501915085601f83011261188657600080fd5b81358181111561189557600080fd5b8660208285010111156118a757600080fd5b60209290920196919550909350505050565b6000602082840312156118cb57600080fd5b5035919050565b6000602082840312156118e457600080fd5b61178282611789565b60ff60f81b881681526000602060e08184015261190d60e084018a611729565b838103604085015261191f818a611729565b606085018990526001600160a01b038816608086015260a0850187905284810360c0860152855180825283870192509083019060005b8181101561197157835183529284019291840191600101611955565b50909c9b505050505050505050505050565b600080600080600080600060e0888a03121561199e57600080fd5b6119a788611789565b96506119b560208901611789565b95506040880135945060608801359350608088013560ff811681146119d957600080fd5b9699959850939692959460a0840135945060c09093013592915050565b60008060408385031215611a0957600080fd5b611a1283611789565b9150611a2060208401611789565b90509250929050565b600181811c90821680611a3d57607f821691505b602082108103611a5d57634e487b7160e01b600052602260045260246000fd5b50919050565b83815260406020820152816040820152818360608301376000818301606090810191909152601f909201601f1916010192915050565b634e487b7160e01b600052601160045260246000fd5b8181038181111561052f5761052f611a99565b634e487b7160e01b600052602160045260246000fd5b8082018082111561052f5761052f611a9956fea2646970667358221220d4772f54296e2f6a3f877e84c85681c9c7b0848f9e4f0c4c102879950a26de2764736f6c63430008140033",
  "linkReferences": {},
  "deployedLinkReferences": {}
}