{
  "_format": "hh-sol-artifact-1",
  "contractName": "VestingVault",
  "sourceName": "contracts/VestingVault.sol",
  "abi": [
    {
      "inputs": [
        {
          "internalType": "address",
          "name": "_afrcToken",
          "type": "address"
        }
      ],
      "stateMutability": "nonpayable",
      "type": "constructor"
    },
    {
      "inputs": [
        {
          "internalType": "address",
          "name": "owner",
          "type": "address"
        }
      ],
      "name": "OwnableInvalidOwner",
      "type": "error"
    },
    {
      "inputs": [
        {
          "internalType": "address",
          "name": "account",
          "type": "address"
        }
      ],
      "name": "OwnableUnauthorizedAccount",
      "type": "error"
    },
    {
      "inputs": [],
      "name": "ReentrancyGuardReentrantCall",
      "type": "error"
    },
    {
      "anonymous": false,
      "inputs": [
        {
          "indexed": true,
          "internalType": "address",
          "name": "previousOwner",
          "type": "address"
        },
        {
          "indexed": true,
          "internalType": "address",
          "name": "newOwner",
          "type": "address"
        }
      ],
      "name": "OwnershipTransferred",
      "type": "event"
    },
    {
      "anonymous": false,
      "inputs": [
        {
          "indexed": true,
          "internalType": "address",
          "name": "beneficiary",
          "type": "address"
        },
        {
          "indexed": false,
          "internalType": "uint256",
          "name": "totalAmount",
          "type": "uint256"
        },
        {
          "indexed": false,
          "internalType": "uint256",
          "name": "startTime",
          "type": "uint256"
        }
      ],
      "name": "ScheduleCreated",
      "type": "event"
    },
    {
      "anonymous": false,
      "inputs": [
        {
          "indexed": true,
          "internalType": "address",
          "name": "beneficiary",
          "type": "address"
        },
        {
          "indexed": false,
          "internalType": "uint256",
          "name": "unvestedAmount",
          "type": "uint256"
        }
      ],
      "name": "ScheduleRevoked",
      "type": "event"
    },
    {
      "anonymous": false,
      "inputs": [
        {
          "indexed": true,
          "internalType": "address",
          "name": "beneficiary",
          "type": "address"
        },
        {
          "indexed": false,
          "internalType": "uint256",
          "name": "amount",
          "type": "uint256"
        }
      ],
      "name": "TokensClaimed",
      "type": "event"
    },
    {
      "inputs": [],
      "name": "TRANCHE1_BPS",
      "outputs": [
        {
          "internalType": "uint256",
          "name": "",
          "type": "uint256"
        }
      ],
      "stateMutability": "view",
      "type": "function"
    },
    {
      "inputs": [],
      "name": "TRANCHE2_BPS",
      "outputs": [
        {
          "internalType": "uint256",
          "name": "",
          "type": "uint256"
        }
      ],
      "stateMutability": "view",
      "type": "function"
    },
    {
      "inputs": [],
      "name": "TRANCHE3_BPS",
      "outputs": [
        {
          "internalType": "uint256",
          "name": "",
          "type": "uint256"
        }
      ],
      "stateMutability": "view",
      "type": "function"
    },
    {
      "inputs": [],
      "name": "afrcToken",
      "outputs": [
        {
          "internalType": "contract IERC20",
          "name": "",
          "type": "address"
        }
      ],
      "stateMutability": "view",
      "type": "function"
    },
    {
      "inputs": [
        {
          "internalType": "uint256",
          "name": "",
          "type": "uint256"
        }
      ],
      "name": "beneficiaries",
      "outputs": [
        {
          "internalType": "address",
          "name": "",
          "type": "address"
        }
      ],
      "stateMutability": "view",
      "type": "function"
    },
    {
      "inputs": [],
      "name": "claim",
      "outputs": [],
      "stateMutability": "nonpayable",
      "type": "function"
    },
    {
      "inputs": [
        {
          "internalType": "address",
          "name": "beneficiary",
          "type": "address"
        },
        {
          "internalType": "uint256",
          "name": "totalAmount",
          "type": "uint256"
        }
      ],
      "name": "createSchedule",
      "outputs": [],
      "stateMutability": "nonpayable",
      "type": "function"
    },
    {
      "inputs": [
        {
          "internalType": "address",
          "name": "beneficiary",
          "type": "address"
        }
      ],
      "name": "getClaimableAmount",
      "outputs": [
        {
          "internalType": "uint256",
          "name": "total",
          "type": "uint256"
        }
      ],
      "stateMutability": "view",
      "type": "function"
    },
    {
      "inputs": [
        {
          "internalType": "address",
          "name": "beneficiary",
          "type": "address"
        }
      ],
      "name": "getSchedule",
      "outputs": [
        {
          "components": [
            {
              "internalType": "uint256",
              "name": "totalAmount",
              "type": "uint256"
            },
            {
              "internalType": "uint256",
              "name": "claimedAmount",
              "type": "uint256"
            },
            {
              "internalType": "uint256",
              "name": "startTime",
              "type": "uint256"
            },
            {
              "internalType": "uint256",
              "name": "cliffDuration1",
              "type": "uint256"
            },
            {
              "internalType": "uint256",
              "name": "vestDuration1",
              "type": "uint256"
            },
            {
              "internalType": "uint256",
              "name": "cliffDuration2",
              "type": "uint256"
            },
            {
              "internalType": "uint256",
              "name": "vestDuration2",
              "type": "uint256"
            },
            {
              "internalType": "uint256",
              "name": "cliffDuration3",
              "type": "uint256"
            },
            {
              "internalType": "uint256",
              "name": "vestDuration3",
              "type": "uint256"
            },
            {
              "internalType": "bool",
              "name": "active",
              "type": "bool"
            }
          ],
          "internalType": "struct VestingVault.VestingSchedule",
          "name": "",
          "type": "tuple"
        }
      ],
      "stateMutability": "view",
      "type": "function"
    },
    {
      "inputs": [
        {
          "internalType": "address",
          "name": "beneficiary",
          "type": "address"
        }
      ],
      "name": "getVestedAmount",
      "outputs": [
        {
          "internalType": "uint256",
          "name": "total",
          "type": "uint256"
        }
      ],
      "stateMutability": "view",
      "type": "function"
    },
    {
      "inputs": [],
      "name": "owner",
      "outputs": [
        {
          "internalType": "address",
          "name": "",
          "type": "address"
        }
      ],
      "stateMutability": "view",
      "type": "function"
    },
    {
      "inputs": [],
      "name": "renounceOwnership",
      "outputs": [],
      "stateMutability": "nonpayable",
      "type": "function"
    },
    {
      "inputs": [
        {
          "internalType": "address",
          "name": "beneficiary",
          "type": "address"
        }
      ],
      "name": "revokeSchedule",
      "outputs": [],
      "stateMutability": "nonpayable",
      "type": "function"
    },
    {
      "inputs": [
        {
          "internalType": "address",
          "name": "",
          "type": "address"
        }
      ],
      "name": "schedules",
      "outputs": [
        {
          "internalType": "uint256",
          "name": "totalAmount",
          "type": "uint256"
        },
        {
          "internalType": "uint256",
          "name": "claimedAmount",
          "type": "uint256"
        },
        {
          "internalType": "uint256",
          "name": "startTime",
          "type": "uint256"
        },
        {
          "internalType": "uint256",
          "name": "cliffDuration1",
          "type": "uint256"
        },
        {
          "internalType": "uint256",
          "name": "vestDuration1",
          "type": "uint256"
        },
        {
          "internalType": "uint256",
          "name": "cliffDuration2",
          "type": "uint256"
        },
        {
          "internalType": "uint256",
          "name": "vestDuration2",
          "type": "uint256"
        },
        {
          "internalType": "uint256",
          "name": "cliffDuration3",
          "type": "uint256"
        },
        {
          "internalType": "uint256",
          "name": "vestDuration3",
          "type": "uint256"
        },
        {
          "internalType": "bool",
          "name": "active",
          "type": "bool"
        }
      ],
      "stateMutability": "view",
      "type": "function"
    },
    {
      "inputs": [],
      "name": "totalAllocated",
      "outputs": [
        {
          "internalType": "uint256",
          "name": "",
          "type": "uint256"
        }
      ],
      "stateMutability": "view",
      "type": "function"
    },
    {
      "inputs": [
        {
          "internalType": "address",
          "name": "newOwner",
          "type": "address"
        }
      ],
      "name": "transferOwnership",
      "outputs": [],
      "stateMutability": "nonpayable",
      "type": "function"
    }
  ],
  "bytecode": "0x608060405234801561001057600080fd5b50604051610fd1380380610fd183398101604081905261002f9161012f565b338061005657604051631e4fbdf760e01b8152600060048201526024015b60405180910390fd5b61005f816100df565b50600180556001600160a01b0381166100ba5760405162461bcd60e51b815260206004820152601a60248201527f56657374696e675661756c743a207a65726f2061646472657373000000000000604482015260640161004d565b600280546001600160a01b0319166001600160a01b039290921691909117905561015f565b600080546001600160a01b038381166001600160a01b0319831681178455604051919092169283917f8be0079c531659141344cd1fd0a4f28419497f9722a3daafe3b4186f6b6457e09190a35050565b60006020828403121561014157600080fd5b81516001600160a01b038116811461015857600080fd5b9392505050565b610e638061016e6000396000f3fe608060405234801561001057600080fd5b50600436106100ff5760003560e01c8063b4b4ce8911610097578063d5a73fdd11610066578063d5a73fdd14610273578063e12f3a6114610286578063efeb5e5814610299578063f2fde38b146102ac57600080fd5b8063b4b4ce8914610237578063cf0f9c1314610135578063cf86cf6914610240578063d39fee341461025357600080fd5b8063715018a6116100d3578063715018a61461014657806380c3780f1461014e5780638da5cb5b146101ff578063a57b18651461022457600080fd5b80620d8b6a1461010457806345f7f24914610119578063472acab7146101355780634e71d92d1461013e575b600080fd5b610117610112366004610cb0565b6102bf565b005b61012260055481565b6040519081526020015b60405180910390f35b610122610fa081565b6101176103d0565b61011761055e565b6101b361015c366004610cb0565b60036020819052600091825260409091208054600182015460028301549383015460048401546005850154600686015460078701546008880154600990980154969895979596949593949293919290919060ff168a565b604080519a8b5260208b0199909952978901969096526060880194909452608087019290925260a086015260c085015260e084015261010083015215156101208201526101400161012c565b6000546001600160a01b03165b6040516001600160a01b03909116815260200161012c565b60025461020c906001600160a01b031681565b6101226107d081565b61011761024e366004610cd2565b610570565b610266610261366004610cb0565b610837565b60405161012c9190610cfc565b610122610281366004610cb0565b610920565b610122610294366004610cb0565b610a4c565b61020c6102a7366004610d77565b610b19565b6101176102ba366004610cb0565b610b43565b6102c7610b81565b6001600160a01b0381166000908152600360205260409020600981015460ff166103425760405162461bcd60e51b815260206004820152602160248201527f56657374696e675661756c743a207363686564756c65206e6f742061637469766044820152606560f81b60648201526084015b60405180910390fd5b600061034d83610920565b905060008183600001546103619190610da6565b60098401805460ff19169055828455600580549192508291600090610387908490610da6565b90915550506040518181526001600160a01b038516907f89b2530687b0817986a10f8e5dde78d853db395ac15d1ea677f49015dcb230009060200160405180910390a250505050565b6103d8610bae565b60006103e333610a4c565b9050600081116104355760405162461bcd60e51b815260206004820152601e60248201527f56657374696e675661756c743a206e6f7468696e6720746f20636c61696d00006044820152606401610339565b3360009081526003602052604081206001018054839290610457908490610dbf565b909155505060025460405163a9059cbb60e01b8152336004820152602481018390526001600160a01b039091169063a9059cbb906044016020604051808303816000875af11580156104ad573d6000803e3d6000fd5b505050506040513d601f19601f820116820180604052508101906104d19190610dd2565b61051d5760405162461bcd60e51b815260206004820152601d60248201527f56657374696e675661756c743a207472616e73666572206661696c65640000006044820152606401610339565b60405181815233907f896e034966eaaf1adc54acc0f257056febbd300c9e47182cf761982cf1f5e4309060200160405180910390a25061055c60018055565b565b610566610b81565b61055c6000610bd8565b610578610b81565b6001600160a01b0382166105ce5760405162461bcd60e51b815260206004820152601a60248201527f56657374696e675661756c743a207a65726f20616464726573730000000000006044820152606401610339565b6001600160a01b03821660009081526003602052604090206009015460ff161561063a5760405162461bcd60e51b815260206004820152601d60248201527f56657374696e675661756c743a207363686564756c65206578697374730000006044820152606401610339565b6000811161068a5760405162461bcd60e51b815260206004820181905260248201527f56657374696e675661756c743a20616d6f756e74206d757374206265203e20306044820152606401610339565b604051806101400160405280828152602001600081526020014281526020016301e133808152602001630784ce0081526020016303c267008152602001630b4735008152602001630784ce008152602001630f099c0081526020016001151581525060036000846001600160a01b03166001600160a01b03168152602001908152602001600020600082015181600001556020820151816001015560408201518160020155606082015181600301556080820151816004015560a0820151816005015560c0820151816006015560e0820151816007015561010082015181600801556101208201518160090160006101000a81548160ff0219169083151502179055509050506004829080600181540180825580915050600190039060005260206000200160009091909190916101000a8154816001600160a01b0302191690836001600160a01b0316021790555080600560008282546107eb9190610dbf565b9091555050604080518281524260208201526001600160a01b038416917fb871057cd3f316a478a827f65b30581628abf740760eb31d9c6df28c98ffc438910160405180910390a25050565b61088f6040518061014001604052806000815260200160008152602001600081526020016000815260200160008152602001600081526020016000815260200160008152602001600081526020016000151581525090565b506001600160a01b03166000908152600360208181526040928390208351610140810185528154815260018201549281019290925260028101549382019390935290820154606082015260048201546080820152600582015460a0820152600682015460c0820152600782015460e0820152600882015461010082015260099091015460ff16151561012082015290565b6001600160a01b03811660009081526003602081815260408084208151610140810183528154815260018201549381019390935260028101549183019190915291820154606082015260048201546080820152600582015460a0820152600682015460c0820152600782015460e0820152600882015461010082015260099091015460ff16151561012082018190526109bc5750600092915050565b60008160400151426109ce9190610da6565b90506109eb8260000151610fa08385606001518660800151610c28565b6109f59084610dbf565b9250610a128260000151610fa0838560a001518660c00151610c28565b610a1c9084610dbf565b9250610a3a82600001516107d0838560e00151866101000151610c28565b610a449084610dbf565b949350505050565b6001600160a01b03811660009081526003602081815260408084208151610140810183528154815260018201549381019390935260028101549183019190915291820154606082015260048201546080820152600582015460a0820152600682015460c0820152600782015460e0820152600882015461010082015260099091015460ff1615156101208201819052610ae85750600092915050565b6000610af384610920565b905081602001518111610b0a575060009392505050565b6020820151610a449082610da6565b60048181548110610b2957600080fd5b6000918252602090912001546001600160a01b0316905081565b610b4b610b81565b6001600160a01b038116610b7557604051631e4fbdf760e01b815260006004820152602401610339565b610b7e81610bd8565b50565b6000546001600160a01b0316331461055c5760405163118cdaa760e01b8152336004820152602401610339565b600260015403610bd157604051633ee5aeb560e01b815260040160405180910390fd5b6002600155565b600080546001600160a01b038381166001600160a01b0319831681178455604051919092169283917f8be0079c531659141344cd1fd0a4f28419497f9722a3daafe3b4186f6b6457e09190a35050565b6000828411610c3957506000610c8b565b6000612710610c488789610df4565b610c529190610e0b565b90506000610c608587610da6565b9050838110610c7157509050610c8b565b83610c7c8284610df4565b610c869190610e0b565b925050505b95945050505050565b80356001600160a01b0381168114610cab57600080fd5b919050565b600060208284031215610cc257600080fd5b610ccb82610c94565b9392505050565b60008060408385031215610ce557600080fd5b610cee83610c94565b946020939093013593505050565b600061014082019050825182526020830151602083015260408301516040830152606083015160608301526080830151608083015260a083015160a083015260c083015160c083015260e083015160e083015261010080840151818401525061012080840151610d6f8285018215159052565b505092915050565b600060208284031215610d8957600080fd5b5035919050565b634e487b7160e01b600052601160045260246000fd5b81810381811115610db957610db9610d90565b92915050565b80820180821115610db957610db9610d90565b600060208284031215610de457600080fd5b81518015158114610ccb57600080fd5b8082028115828204841417610db957610db9610d90565b600082610e2857634e487b7160e01b600052601260045260246000fd5b50049056fea2646970667358221220a558eca3d72871caae439c33bf7f2baa1d0f1daf8ec2945d676f5b31ad29763f64736f6c63430008140033",
  "linkReferences": {},
  "deployedLinkReferences": {}
}