{
  "_format": "hh-sol-artifact-1",
  "contractName": "PNPRegistry",
  "sourceName": "contracts/PNPRegistry.sol",
  "abi": [
    {
      "inputs": [
        {
          "internalType": "address",
          "name": "_afrcToken",
          "type": "address"
        },
        {
          "internalType": "address",
          "name": "_treasury",
          "type": "address"
        }
      ],
      "stateMutability": "nonpayable",
      "type": "constructor"
    },
    {
      "inputs": [
        {
          "internalType": "address",
          "name": "owner",
          "type": "address"
        }
      ],
      "name": "OwnableInvalidOwner",
      "type": "error"
    },
    {
      "inputs": [
        {
          "internalType": "address",
          "name": "account",
          "type": "address"
        }
      ],
      "name": "OwnableUnauthorizedAccount",
      "type": "error"
    },
    {
      "inputs": [],
      "name": "ReentrancyGuardReentrantCall",
      "type": "error"
    },
    {
      "anonymous": false,
      "inputs": [
        {
          "indexed": true,
          "internalType": "bytes32",
          "name": "nameHash",
          "type": "bytes32"
        },
        {
          "indexed": false,
          "internalType": "string",
          "name": "name",
          "type": "string"
        },
        {
          "indexed": true,
          "internalType": "address",
          "name": "owner",
          "type": "address"
        },
        {
          "indexed": false,
          "internalType": "uint256",
          "name": "expiresAt",
          "type": "uint256"
        }
      ],
      "name": "NameRegistered",
      "type": "event"
    },
    {
      "anonymous": false,
      "inputs": [
        {
          "indexed": true,
          "internalType": "bytes32",
          "name": "nameHash",
          "type": "bytes32"
        },
        {
          "indexed": false,
          "internalType": "uint256",
          "name": "newExpiresAt",
          "type": "uint256"
        }
      ],
      "name": "NameRenewed",
      "type": "event"
    },
    {
      "anonymous": false,
      "inputs": [
        {
          "indexed": true,
          "internalType": "bytes32",
          "name": "nameHash",
          "type": "bytes32"
        },
        {
          "indexed": true,
          "internalType": "address",
          "name": "from",
          "type": "address"
        },
        {
          "indexed": true,
          "internalType": "address",
          "name": "to",
          "type": "address"
        }
      ],
      "name": "NameTransferred",
      "type": "event"
    },
    {
      "anonymous": false,
      "inputs": [
        {
          "indexed": true,
          "internalType": "address",
          "name": "previousOwner",
          "type": "address"
        },
        {
          "indexed": true,
          "internalType": "address",
          "name": "newOwner",
          "type": "address"
        }
      ],
      "name": "OwnershipTransferred",
      "type": "event"
    },
    {
      "inputs": [],
      "name": "DEFAULT_DURATION",
      "outputs": [
        {
          "internalType": "uint256",
          "name": "",
          "type": "uint256"
        }
      ],
      "stateMutability": "view",
      "type": "function"
    },
    {
      "inputs": [],
      "name": "GRACE_PERIOD",
      "outputs": [
        {
          "internalType": "uint256",
          "name": "",
          "type": "uint256"
        }
      ],
      "stateMutability": "view",
      "type": "function"
    },
    {
      "inputs": [],
      "name": "afrcToken",
      "outputs": [
        {
          "internalType": "contract IERC20",
          "name": "",
          "type": "address"
        }
      ],
      "stateMutability": "view",
      "type": "function"
    },
    {
      "inputs": [],
      "name": "basicNameFee",
      "outputs": [
        {
          "internalType": "uint256",
          "name": "",
          "type": "uint256"
        }
      ],
      "stateMutability": "view",
      "type": "function"
    },
    {
      "inputs": [
        {
          "internalType": "string",
          "name": "name",
          "type": "string"
        }
      ],
      "name": "isActive",
      "outputs": [
        {
          "internalType": "bool",
          "name": "",
          "type": "bool"
        }
      ],
      "stateMutability": "view",
      "type": "function"
    },
    {
      "inputs": [
        {
          "internalType": "string",
          "name": "name",
          "type": "string"
        }
      ],
      "name": "isAvailable",
      "outputs": [
        {
          "internalType": "bool",
          "name": "",
          "type": "bool"
        }
      ],
      "stateMutability": "view",
      "type": "function"
    },
    {
      "inputs": [],
      "name": "owner",
      "outputs": [
        {
          "internalType": "address",
          "name": "",
          "type": "address"
        }
      ],
      "stateMutability": "view",
      "type": "function"
    },
    {
      "inputs": [
        {
          "internalType": "string",
          "name": "name",
          "type": "string"
        }
      ],
      "name": "ownerOf",
      "outputs": [
        {
          "internalType": "address",
          "name": "",
          "type": "address"
        }
      ],
      "stateMutability": "view",
      "type": "function"
    },
    {
      "inputs": [
        {
          "internalType": "string",
          "name": "name",
          "type": "string"
        }
      ],
      "name": "register",
      "outputs": [],
      "stateMutability": "nonpayable",
      "type": "function"
    },
    {
      "inputs": [],
      "name": "renounceOwnership",
      "outputs": [],
      "stateMutability": "nonpayable",
      "type": "function"
    },
    {
      "inputs": [],
      "name": "shortNameFee",
      "outputs": [
        {
          "internalType": "uint256",
          "name": "",
          "type": "uint256"
        }
      ],
      "stateMutability": "view",
      "type": "function"
    },
    {
      "inputs": [
        {
          "internalType": "address",
          "name": "newOwner",
          "type": "address"
        }
      ],
      "name": "transferOwnership",
      "outputs": [],
      "stateMutability": "nonpayable",
      "type": "function"
    },
    {
      "inputs": [],
      "name": "treasury",
      "outputs": [
        {
          "internalType": "address",
          "name": "",
          "type": "address"
        }
      ],
      "stateMutability": "view",
      "type": "function"
    }
  ],
  "bytecode": "0x608060405268056bc75e2d63100000600555600060065534801561002257600080fd5b50604051610e84380380610e84833981016040819052610041916101bf565b338061006857604051631e4fbdf760e01b8152600060048201526024015b60405180910390fd5b61007181610153565b50600180556001600160a01b0382166100cc5760405162461bcd60e51b815260206004820152601760248201527f504e503a207a65726f20746f6b656e2061646472657373000000000000000000604482015260640161005f565b6001600160a01b0381166101225760405162461bcd60e51b815260206004820152601a60248201527f504e503a207a65726f2074726561737572792061646472657373000000000000604482015260640161005f565b600280546001600160a01b039384166001600160a01b031991821617909155600380549290931691161790556101f2565b600080546001600160a01b038381166001600160a01b0319831681178455604051919092169283917f8be0079c531659141344cd1fd0a4f28419497f9722a3daafe3b4186f6b6457e09190a35050565b80516001600160a01b03811681146101ba57600080fd5b919050565b600080604083850312156101d257600080fd5b6101db836101a3565b91506101e9602084016101a3565b90509250929050565b610c83806102016000396000f3fe608060405234801561001057600080fd5b50600436106100cf5760003560e01c8063965306aa1161008c578063c297fa0f11610066578063c297fa0f14610192578063c8902a211461019d578063f2c298be146101b0578063f2fde38b146101c357600080fd5b8063965306aa14610152578063a57b186514610175578063c1a287e21461018857600080fd5b806302cd057b146100d457806361d027b3146100f0578063715018a61461011b578063759dc838146101255780638da5cb5b1461012e578063920ffa261461013f575b600080fd5b6100dd60055481565b6040519081526020015b60405180910390f35b600354610103906001600160a01b031681565b6040516001600160a01b0390911681526020016100e7565b6101236101d6565b005b6100dd60065481565b6000546001600160a01b0316610103565b61010361014d366004610a84565b6101ea565b610165610160366004610a84565b6102ff565b60405190151581526020016100e7565b600254610103906001600160a01b031681565b6100dd6276a70081565b6100dd6301e1338081565b6101656101ab366004610a84565b610350565b6101236101be366004610a84565b61039b565b6101236101d1366004610af6565b6107c1565b6101de6107ff565b6101e8600061082c565b565b60008061022c84848080601f01602080910402602001604051908101604052809392919081815260200183838082843760009201919091525061087c92505050565b60008181526004602052604090206003015490915060ff166102955760405162461bcd60e51b815260206004820152601860248201527f504e503a206e616d65206e6f742072656769737465726564000000000000000060448201526064015b60405180910390fd5b61029e816108ac565b6102de5760405162461bcd60e51b81526020600482015260116024820152701413940e881b985b5948195e1c1a5c9959607a1b604482015260640161028c565b6000908152600460205260409020546001600160a01b031690505b92915050565b600061034861034384848080601f01602080910402602001604051908101604052809392919081815260200183838082843760009201919091525061087c92505050565b6108ac565b159392505050565b600061039461034384848080601f01602080910402602001604051908101604052809392919081815260200183838082843760009201919091525061087c92505050565b9392505050565b6103a36108e6565b60006103e483838080601f01602080910402602001604051908101604052809392919081815260200183838082843760009201919091525061087c92505050565b90506103ef816108ac565b1561043c5760405162461bcd60e51b815260206004820152601c60248201527f504e503a206e616d6520616c7265616479207265676973746572656400000000604482015260640161028c565b61047b83838080601f01602080910402602001604051908101604052809392919081815260200183838082843760009201919091525061091092505050565b6104bb5760405162461bcd60e51b8152602060048201526011602482015270504e503a20696e76616c6964206e616d6560781b604482015260640161028c565b60006104fc84848080601f016020809104026020016040519081016040528093929190818152602001838380828437600092019190915250610a4d92505050565b905080156106ea576002546040516323b872dd60e01b8152336004820152306024820152604481018390526001600160a01b03909116906323b872dd906064016020604051808303816000875af115801561055b573d6000803e3d6000fd5b505050506040513d601f19601f8201168201806040525081019061057f9190610b1f565b6105cb5760405162461bcd60e51b815260206004820152601860248201527f504e503a20666565207472616e73666572206661696c65640000000000000000604482015260640161028c565b60006105d8600283610b57565b905060006105e68284610b79565b905081156106665760025460405163a9059cbb60e01b815260006004820152602481018490526001600160a01b039091169063a9059cbb906044016020604051808303816000875af1158015610640573d6000803e3d6000fd5b505050506040513d601f19601f820116820180604052508101906106649190610b1f565b505b80156106e75760025460035460405163a9059cbb60e01b81526001600160a01b0391821660048201526024810184905291169063a9059cbb906044016020604051808303816000875af11580156106c1573d6000803e3d6000fd5b505050506040513d601f19601f820116820180604052508101906106e59190610b1f565b505b50505b60006106fa6301e1338042610b8c565b604080516080810182523380825242602080840191825283850186815260016060860181815260008c8152600490945292879020955186546001600160a01b0319166001600160a01b0390911617865592519285019290925590516002840155516003909201805460ff19169215159290921790915590519192509084907f4ca007e15dd1d80b3512005d0b3de91c6d800221327eeb30339cbf2e7cff6286906107a990899089908790610b9f565b60405180910390a35050506107bd60018055565b5050565b6107c96107ff565b6001600160a01b0381166107f357604051631e4fbdf760e01b81526000600482015260240161028c565b6107fc8161082c565b50565b6000546001600160a01b031633146101e85760405163118cdaa760e01b815233600482015260240161028c565b600080546001600160a01b038381166001600160a01b0319831681178455604051919092169283917f8be0079c531659141344cd1fd0a4f28419497f9722a3daafe3b4186f6b6457e09190a35050565b60008160405160200161088f9190610bd8565b604051602081830303815290604052805190602001209050919050565b6000818152600460205260408120600381015460ff16801561039457506276a70081600201546108dc9190610b8c565b4211159392505050565b60026001540361090957604051633ee5aeb560e01b815260040160405180910390fd5b6002600155565b805160009060038110806109245750604081115b156109325750600092915050565b8260005b82811015610a4257600082828151811061095257610952610c07565b01602001516001600160f81b0319169050600360fc1b81108015906109855750603960f81b6001600160f81b0319821611155b806109b75750604160f81b6001600160f81b03198216108015906109b75750602d60f91b6001600160f81b0319821611155b806109e95750606160f81b6001600160f81b03198216108015906109e95750603d60f91b6001600160f81b0319821611155b80610a015750602d60f81b6001600160f81b03198216145b80610a195750605f60f81b6001600160f81b03198216145b15610a245750610a30565b50600095945050505050565b80610a3a81610c1d565b915050610936565b506001949350505050565b805160009060038111610a685760055461039490600a610c36565b60068111610a7a575050600554919050565b5050600654919050565b60008060208385031215610a9757600080fd5b823567ffffffffffffffff80821115610aaf57600080fd5b818501915085601f830112610ac357600080fd5b813581811115610ad257600080fd5b866020828501011115610ae457600080fd5b60209290920196919550909350505050565b600060208284031215610b0857600080fd5b81356001600160a01b038116811461039457600080fd5b600060208284031215610b3157600080fd5b8151801515811461039457600080fd5b634e487b7160e01b600052601160045260246000fd5b600082610b7457634e487b7160e01b600052601260045260246000fd5b500490565b818103818111156102f9576102f9610b41565b808201808211156102f9576102f9610b41565b604081528260408201528284606083013760006060848301015260006060601f19601f8601168301019050826020830152949350505050565b6000825160005b81811015610bf95760208186018101518583015201610bdf565b506000920191825250919050565b634e487b7160e01b600052603260045260246000fd5b600060018201610c2f57610c2f610b41565b5060010190565b80820281158282048414176102f9576102f9610b4156fea26469706673582212209405114dca7f9c421e9df92c7cf2637ea3966a91102e31444d3aa0fc0d08579864736f6c63430008140033",
  "linkReferences": {},
  "deployedLinkReferences": {}
}